{
  "contractName": "Seguro",
  "abi": [
    {
      "constant": true,
      "inputs": [
        {
          "name": "",
          "type": "uint256"
        }
      ],
      "name": "siniestro_num_poliza",
      "outputs": [
        {
          "name": "",
          "type": "uint256"
        }
      ],
      "payable": false,
      "stateMutability": "view",
      "type": "function"
    },
    {
      "constant": true,
      "inputs": [
        {
          "name": "",
          "type": "uint256"
        }
      ],
      "name": "poliza_propietario",
      "outputs": [
        {
          "name": "",
          "type": "address"
        }
      ],
      "payable": false,
      "stateMutability": "view",
      "type": "function"
    },
    {
      "constant": true,
      "inputs": [
        {
          "name": "",
          "type": "uint256"
        }
      ],
      "name": "benefApprovals",
      "outputs": [
        {
          "name": "",
          "type": "address"
        }
      ],
      "payable": false,
      "stateMutability": "view",
      "type": "function"
    },
    {
      "constant": true,
      "inputs": [
        {
          "name": "",
          "type": "uint256"
        }
      ],
      "name": "siniestros",
      "outputs": [
        {
          "name": "aceptado",
          "type": "bool"
        },
        {
          "name": "pagado",
          "type": "bool"
        }
      ],
      "payable": false,
      "stateMutability": "view",
      "type": "function"
    },
    {
      "inputs": [],
      "payable": false,
      "stateMutability": "nonpayable",
      "type": "constructor"
    },
    {
      "anonymous": false,
      "inputs": [
        {
          "indexed": false,
          "name": "num_poliza",
          "type": "uint256"
        },
        {
          "indexed": false,
          "name": "suma_asegurada",
          "type": "uint256"
        },
        {
          "indexed": false,
          "name": "reserva",
          "type": "uint256"
        }
      ],
      "name": "NewPoliza",
      "type": "event"
    },
    {
      "anonymous": false,
      "inputs": [
        {
          "indexed": false,
          "name": "num_poliza",
          "type": "uint256"
        },
        {
          "indexed": false,
          "name": "folio",
          "type": "uint256"
        },
        {
          "indexed": false,
          "name": "suma_asegurada",
          "type": "uint256"
        },
        {
          "indexed": false,
          "name": "reserva",
          "type": "uint256"
        }
      ],
      "name": "Reclamo",
      "type": "event"
    },
    {
      "anonymous": false,
      "inputs": [
        {
          "indexed": false,
          "name": "num_poliza",
          "type": "uint256"
        },
        {
          "indexed": false,
          "name": "suma_asegurada",
          "type": "uint256"
        }
      ],
      "name": "PagoSiniestro",
      "type": "event"
    },
    {
      "anonymous": false,
      "inputs": [
        {
          "indexed": false,
          "name": "num_poliza",
          "type": "uint256"
        },
        {
          "indexed": false,
          "name": "folio",
          "type": "uint256"
        }
      ],
      "name": "NoPagoSiniestro",
      "type": "event"
    },
    {
      "anonymous": false,
      "inputs": [
        {
          "indexed": true,
          "name": "_owner",
          "type": "address"
        },
        {
          "indexed": true,
          "name": "_approved",
          "type": "address"
        },
        {
          "indexed": true,
          "name": "_tokenId",
          "type": "uint256"
        }
      ],
      "name": "Approval",
      "type": "event"
    },
    {
      "constant": true,
      "inputs": [],
      "name": "prueba",
      "outputs": [
        {
          "name": "",
          "type": "string"
        }
      ],
      "payable": false,
      "stateMutability": "pure",
      "type": "function"
    },
    {
      "constant": false,
      "inputs": [
        {
          "name": "_prima",
          "type": "uint256"
        }
      ],
      "name": "registro_prima",
      "outputs": [
        {
          "name": "",
          "type": "uint256"
        }
      ],
      "payable": false,
      "stateMutability": "nonpayable",
      "type": "function"
    },
    {
      "constant": false,
      "inputs": [],
      "name": "get_prima",
      "outputs": [
        {
          "name": "",
          "type": "uint256"
        }
      ],
      "payable": false,
      "stateMutability": "nonpayable",
      "type": "function"
    },
    {
      "constant": false,
      "inputs": [
        {
          "name": "_asegurado",
          "type": "string"
        },
        {
          "name": "_sexo",
          "type": "string"
        },
        {
          "name": "_edad",
          "type": "uint256"
        },
        {
          "name": "_beneficiario",
          "type": "string"
        },
        {
          "name": "_address_benef",
          "type": "address"
        },
        {
          "name": "_suma_asegurada",
          "type": "uint256"
        },
        {
          "name": "prima",
          "type": "uint256"
        },
        {
          "name": "reserva",
          "type": "uint256"
        }
      ],
      "name": "creaPoliza",
      "outputs": [],
      "payable": false,
      "stateMutability": "nonpayable",
      "type": "function"
    },
    {
      "constant": true,
      "inputs": [],
      "name": "owner",
      "outputs": [
        {
          "name": "",
          "type": "address"
        }
      ],
      "payable": false,
      "stateMutability": "view",
      "type": "function"
    },
    {
      "constant": false,
      "inputs": [],
      "name": "withdraw",
      "outputs": [],
      "payable": true,
      "stateMutability": "payable",
      "type": "function"
    },
    {
      "constant": false,
      "inputs": [
        {
          "name": "cantidad",
          "type": "uint256"
        }
      ],
      "name": "withdraw_reserva",
      "outputs": [],
      "payable": true,
      "stateMutability": "payable",
      "type": "function"
    },
    {
      "constant": false,
      "inputs": [
        {
          "name": "_num_poliza",
          "type": "uint256"
        }
      ],
      "name": "asegurame",
      "outputs": [],
      "payable": true,
      "stateMutability": "payable",
      "type": "function"
    },
    {
      "constant": true,
      "inputs": [
        {
          "name": "_num_poliza",
          "type": "uint256"
        }
      ],
      "name": "ownerOf",
      "outputs": [
        {
          "name": "",
          "type": "address"
        }
      ],
      "payable": false,
      "stateMutability": "view",
      "type": "function"
    },
    {
      "constant": true,
      "inputs": [
        {
          "name": "_num_poliza",
          "type": "uint256"
        }
      ],
      "name": "mi_suma_asegurada",
      "outputs": [
        {
          "name": "",
          "type": "uint256"
        }
      ],
      "payable": false,
      "stateMutability": "view",
      "type": "function"
    },
    {
      "constant": false,
      "inputs": [
        {
          "name": "_approved",
          "type": "address"
        },
        {
          "name": "_num_poliza",
          "type": "uint256"
        }
      ],
      "name": "approve",
      "outputs": [],
      "payable": true,
      "stateMutability": "payable",
      "type": "function"
    },
    {
      "constant": true,
      "inputs": [
        {
          "name": "_num_poliza",
          "type": "uint256"
        }
      ],
      "name": "mi_prima",
      "outputs": [
        {
          "name": "",
          "type": "uint256"
        }
      ],
      "payable": false,
      "stateMutability": "view",
      "type": "function"
    },
    {
      "constant": false,
      "inputs": [
        {
          "name": "_num_poliza",
          "type": "uint256"
        }
      ],
      "name": "reclamo",
      "outputs": [],
      "payable": false,
      "stateMutability": "nonpayable",
      "type": "function"
    },
    {
      "constant": false,
      "inputs": [
        {
          "name": "folio_siniestro",
          "type": "uint256"
        },
        {
          "name": "aceptacion",
          "type": "bool"
        }
      ],
      "name": "pago_reclamo",
      "outputs": [],
      "payable": false,
      "stateMutability": "nonpayable",
      "type": "function"
    },
    {
      "constant": false,
      "inputs": [
        {
          "name": "_tiempo_espera",
          "type": "uint256"
        }
      ],
      "name": "_setTiempo_espera",
      "outputs": [],
      "payable": false,
      "stateMutability": "nonpayable",
      "type": "function"
    }
  ],
  "bytecode": "0x60806040526213c68060015534801561001757600080fd5b50336000806101000a81548173ffffffffffffffffffffffffffffffffffffffff021916908373ffffffffffffffffffffffffffffffffffffffff1602179055506000600281905550611a348061006f6000396000f3fe6080604052600436106101145760003560e01c80637cb5946d116100a0578063ac45b29511610064578063ac45b29514610741578063bc1ab31e14610790578063d5dbd6631461080b578063d98efbc81461085a578063e1913f2f1461088857610114565b80637cb5946d146105765780638da5cb5b14610606578063a3820ac21461065d578063a601c2f81461068b578063ab500a38146106c657610114565b80632c37218a116100e75780632c37218a146102405780633ccfd60b1461028757806355f5469f146102915780636352211e146104d057806377ab838a1461054b57610114565b8063018e618014610119578063095ea7b314610154578063161a3eb6146101a25780631ce134ee146101f1575b600080fd5b34801561012557600080fd5b506101526004803603602081101561013c57600080fd5b81019080803590602001909291905050506108e6565b005b6101a06004803603604081101561016a57600080fd5b81019080803573ffffffffffffffffffffffffffffffffffffffff169060200190929190803590602001909291905050506108f0565b005b3480156101ae57600080fd5b506101db600480360360208110156101c557600080fd5b8101908080359060200190929190505050610a52565b6040518082815260200191505060405180910390f35b3480156101fd57600080fd5b5061022a6004803603602081101561021457600080fd5b8101908080359060200190929190505050610a6a565b6040518082815260200191505060405180910390f35b34801561024c57600080fd5b506102856004803603604081101561026357600080fd5b8101908080359060200190929190803515159060200190929190505050610a79565b005b61028f610bc8565b005b34801561029d57600080fd5b506104ce60048036036101008110156102b557600080fd5b81019080803590602001906401000000008111156102d257600080fd5b8201836020820111156102e457600080fd5b8035906020019184600183028401116401000000008311171561030657600080fd5b91908080601f016020809104026020016040519081016040528093929190818152602001838380828437600081840152601f19601f8201169050808301925050505050505091929192908035906020019064010000000081111561036957600080fd5b82018360208201111561037b57600080fd5b8035906020019184600183028401116401000000008311171561039d57600080fd5b91908080601f016020809104026020016040519081016040528093929190818152602001838380828437600081840152601f19601f820116905080830192505050505050509192919290803590602001909291908035906020019064010000000081111561040a57600080fd5b82018360208201111561041c57600080fd5b8035906020019184600183028401116401000000008311171561043e57600080fd5b91908080601f016020809104026020016040519081016040528093929190818152602001838380828437600081840152601f19601f820116905080830192505050505050509192919290803573ffffffffffffffffffffffffffffffffffffffff169060200190929190803590602001909291908035906020019092919080359060200190929190505050610c35565b005b3480156104dc57600080fd5b50610509600480360360208110156104f357600080fd5b8101908080359060200190929190505050610cb1565b604051808273ffffffffffffffffffffffffffffffffffffffff1673ffffffffffffffffffffffffffffffffffffffff16815260200191505060405180910390f35b34801561055757600080fd5b50610560610cee565b6040518082815260200191505060405180910390f35b34801561058257600080fd5b5061058b610cf8565b6040518080602001828103825283818151815260200191508051906020019080838360005b838110156105cb5780820151818401526020810190506105b0565b50505050905090810190601f1680156105f85780820380516001836020036101000a031916815260200191505b509250505060405180910390f35b34801561061257600080fd5b5061061b610d35565b604051808273ffffffffffffffffffffffffffffffffffffffff1673ffffffffffffffffffffffffffffffffffffffff16815260200191505060405180910390f35b6106896004803603602081101561067357600080fd5b8101908080359060200190929190505050610d5e565b005b34801561069757600080fd5b506106c4600480360360208110156106ae57600080fd5b8101908080359060200190929190505050611008565b005b3480156106d257600080fd5b506106ff600480360360208110156106e957600080fd5b8101908080359060200190929190505050611179565b604051808273ffffffffffffffffffffffffffffffffffffffff1673ffffffffffffffffffffffffffffffffffffffff16815260200191505060405180910390f35b34801561074d57600080fd5b5061077a6004803603602081101561076457600080fd5b81019080803590602001909291905050506111ac565b6040518082815260200191505060405180910390f35b34801561079c57600080fd5b506107c9600480360360208110156107b357600080fd5b8101908080359060200190929190505050611283565b604051808273ffffffffffffffffffffffffffffffffffffffff1673ffffffffffffffffffffffffffffffffffffffff16815260200191505060405180910390f35b34801561081757600080fd5b506108446004803603602081101561082e57600080fd5b81019080803590602001909291905050506112b6565b6040518082815260200191505060405180910390f35b6108866004803603602081101561087057600080fd5b8101908080359060200190929190505050611387565b005b34801561089457600080fd5b506108c1600480360360208110156108ab57600080fd5b81019080803590602001909291905050506113de565b6040518083151515158152602001821515151581526020019250505060405180910390f35b8060018190555050565b806006600082815260200190815260200160002060009054906101000a900473ffffffffffffffffffffffffffffffffffffffff1673ffffffffffffffffffffffffffffffffffffffff163373ffffffffffffffffffffffffffffffffffffffff16146109a0576040517f08c379a0000000000000000000000000000000000000000000000000000000008152600401808060200182810382526000815260200160200191505060405180910390fd5b826007600084815260200190815260200160002060006101000a81548173ffffffffffffffffffffffffffffffffffffffff021916908373ffffffffffffffffffffffffffffffffffffffff160217905550818373ffffffffffffffffffffffffffffffffffffffff163373ffffffffffffffffffffffffffffffffffffffff167f8c5be1e5ebec7d5bd14f71427d1e84f3dd0314c0f7b2291e5b200ac8c7c3b92560405160405180910390a4505050565b60086020528060005260406000206000915090505481565b60008160038190559050919050565b6000600860008481526020019081526020016000205490508115610b835760006005600083815260200190815260200160002060070154905060006005600084815260200190815260200160002060050160010160009054906101000a900473ffffffffffffffffffffffffffffffffffffffff16905060008190508073ffffffffffffffffffffffffffffffffffffffff166108fc849081150290604051600060405180830381858888f19350505050158015610b3b573d6000803e3d6000fd5b507fadc51693dcefc876ac236887f3ca17be083ea79ba20f99dac6a8831c4caef3e18484604051808381526020018281526020019250505060405180910390a1505050610bc3565b7fe33e76eda280b7c01b4713b5be15d9e40a307c82288ca33eaf9763d2b0b3fc0f8184604051808381526020018281526020019250505060405180910390a15b505050565b6000610bd2610d35565b90508073ffffffffffffffffffffffffffffffffffffffff166108fc3073ffffffffffffffffffffffffffffffffffffffff16319081150290604051600060405180830381858888f19350505050158015610c31573d6000803e3d6000fd5b5050565b610c3d611814565b60405180608001604052808a8152602001898152602001888152602001600015158152509050610c6b61183e565b60405180604001604052808881526020018773ffffffffffffffffffffffffffffffffffffffff168152509050610ca58282878787611425565b50505050505050505050565b60006006600083815260200190815260200160002060009054906101000a900473ffffffffffffffffffffffffffffffffffffffff169050919050565b6000600354905090565b60606040518060400160405280600481526020017f486f6c6100000000000000000000000000000000000000000000000000000000815250905090565b60008060009054906101000a900473ffffffffffffffffffffffffffffffffffffffff16905090565b8042600560008381526020019081526020016000206009015460056000848152602001908152602001600020600e01540111610e02576040517f08c379a000000000000000000000000000000000000000000000000000000000815260040180806020018281038252600e8152602001807f506f6c697a612076656e6369646100000000000000000000000000000000000081525060200191505060405180910390fd5b816006600082815260200190815260200160002060009054906101000a900473ffffffffffffffffffffffffffffffffffffffff1673ffffffffffffffffffffffffffffffffffffffff163373ffffffffffffffffffffffffffffffffffffffff1614610eb2576040517f08c379a0000000000000000000000000000000000000000000000000000000008152600401808060200182810382526000815260200160200191505060405180910390fd5b6005600084815260200190815260200160002060080154341015610f3e576040517f08c379a00000000000000000000000000000000000000000000000000000000081526004018080602001828103825260178152602001807f456c207061676f20657320696e737566696369656e746500000000000000000081525060200191505060405180910390fd5b60016005600085815260200190815260200160002060100160006101000a81548160ff0219169083151502179055503373ffffffffffffffffffffffffffffffffffffffff166108fc600560008681526020019081526020016000206008015434039081150290604051600060405180830381858888f19350505050158015610fcb573d6000803e3d6000fd5b506110036005600085815260200190815260200160002060110154600560008681526020019081526020016000206008015403611387565b505050565b806005600082815260200190815260200160002060100160009054906101000a900460ff168061105257504260015460056000848152602001908152602001600020600e01540110155b6110c4576040517f08c379a000000000000000000000000000000000000000000000000000000000815260040180806020018281038252601e8152602001807f4e6f207365207265616c697a6f20656c207061676f206465207072696d61000081525060200191505060405180910390fd5b60006005600084815260200190815260200160002060070154905060006005600085815260200190815260200160002060050160010160009054906101000a900473ffffffffffffffffffffffffffffffffffffffff16905060008190508073ffffffffffffffffffffffffffffffffffffffff166108fc849081150290604051600060405180830381858888f19350505050158015611168573d6000803e3d6000fd5b50611172856116ce565b5050505050565b60066020528060005260406000206000915054906101000a900473ffffffffffffffffffffffffffffffffffffffff1681565b6000816006600082815260200190815260200160002060009054906101000a900473ffffffffffffffffffffffffffffffffffffffff1673ffffffffffffffffffffffffffffffffffffffff163373ffffffffffffffffffffffffffffffffffffffff161461125e576040517f08c379a0000000000000000000000000000000000000000000000000000000008152600401808060200182810382526000815260200160200191505060405180910390fd5b6000600560008581526020019081526020016000206008015490508092505050919050565b60076020528060005260406000206000915054906101000a900473ffffffffffffffffffffffffffffffffffffffff1681565b6000816006600082815260200190815260200160002060009054906101000a900473ffffffffffffffffffffffffffffffffffffffff1673ffffffffffffffffffffffffffffffffffffffff163373ffffffffffffffffffffffffffffffffffffffff1614611368576040517f08c379a0000000000000000000000000000000000000000000000000000000008152600401808060200182810382526000815260200160200191505060405180910390fd5b6005600084815260200190815260200160002060070154915050919050565b6000611391610d35565b90508073ffffffffffffffffffffffffffffffffffffffff166108fc839081150290604051600060405180830381858888f193505050501580156113d9573d6000803e3d6000fd5b505050565b600981815481106113eb57fe5b906000526020600020016000915090508060000160009054906101000a900460ff16908060000160019054906101000a900460ff16905082565b60026000815480929190600101919050555061143f61186e565b604051806101c0016040528060025481526020018781526020018681526020018581526020018481526020016301e133808152602001600181526020016001815260200160405180602001604052806000815250815260200160405180602001604052806000815250815260200142815260200160015442018152602001600015158152602001838152509050806005600060025481526020019081526020016000206000820151816000015560208201518160010160008201518160000190805190602001906115119291906118eb565b50602082015181600101908051906020019061152e9291906118eb565b506040820151816002015560608201518160030160006101000a81548160ff021916908315150217905550505060408201518160050160008201518160000190805190602001906115809291906118eb565b5060208201518160010160006101000a81548173ffffffffffffffffffffffffffffffffffffffff021916908373ffffffffffffffffffffffffffffffffffffffff1602179055505050606082015181600701556080820151816008015560a0820151816009015560c082015181600a015560e082015181600b015561010082015181600c0190805190602001906116199291906118eb565b5061012082015181600d0190805190602001906116379291906118eb565b5061014082015181600e015561016082015181600f01556101808201518160100160006101000a81548160ff0219169083151502179055506101a082015181601101559050507fcc112416b31308b306c0ecbd40869ed4799a8027184cc9f2636ccee2f9cc3f81600254858460405180848152602001838152602001828152602001935050505060405180910390a1505050505050565b600080905060008090506116e061196b565b6040518060400160405280841515815260200183151581525090506000600160098390806001815401808255809150509060018203906000526020600020016000909192909190915060008201518160000160006101000a81548160ff02191690831515021790555060208201518160000160016101000a81548160ff02191690831515021790555050500390508460086000838152602001908152602001600020819055506000600560008781526020019081526020016000206007015490506000600560008881526020019081526020016000206011015490507f35b8e399b39f9a14643260cd24841d66994fb9ff2fe66bd215125b784738f960878484846040518085815260200184815260200183815260200182815260200194505050505060405180910390a150505050505050565b60405180608001604052806060815260200160608152602001600081526020016000151581525090565b604051806040016040528060608152602001600073ffffffffffffffffffffffffffffffffffffffff1681525090565b60405180610240016040528060008152602001611889611989565b81526020016118966119b3565b8152602001600081526020016000815260200160008152602001600081526020016000815260200160608152602001606081526020016000815260200160008152602001600015158152602001600081525090565b828054600181600116156101000203166002900490600052602060002090601f016020900481019282601f1061192c57805160ff191683800117855561195a565b8280016001018555821561195a579182015b8281111561195957825182559160200191906001019061193e565b5b50905061196791906119e3565b5090565b60405180604001604052806000151581526020016000151581525090565b60405180608001604052806060815260200160608152602001600081526020016000151581525090565b604051806040016040528060608152602001600073ffffffffffffffffffffffffffffffffffffffff1681525090565b611a0591905b80821115611a015760008160009055506001016119e9565b5090565b9056fea165627a7a7230582068001d879fb89b56875097bd5323c1ea6721e441b7b2a699d6ccd8e4cfe295d90029",
  "source": "pragma solidity ^0.5.8;\r\n\r\nimport \"./ERC721.sol\";\r\n\r\ncontract Seguro is ERC721 {\r\n\r\n    event NewPoliza(uint num_poliza, uint suma_asegurada, uint reserva);\r\n    event Reclamo(uint num_poliza, uint folio, uint suma_asegurada, uint reserva);\r\n    event PagoSiniestro(uint num_poliza, uint suma_asegurada);\r\n    event NoPagoSiniestro(uint num_poliza, uint folio);\r\n\r\n\r\n    //------------------------------------------------------------------------------\r\n    //------------------------------------------------------------------------------\r\n    //------------------------------------------------------------------------------\r\n    //------------------------------------------------------------------------------\r\n\r\n    address payable private _owner;\r\n    uint tiempo_espera = 15 days;\r\n    uint num_poliza;\r\n\r\n    uint prima;\r\n\r\n    constructor() public {\r\n        _owner = msg.sender;\r\n        num_poliza = 0;\r\n    }\r\n\r\n    //------------------------------------------------------------------------------\r\n    //------------------------------------------------------------------------------\r\n    //------------------------------------------------------------------------------\r\n    //------------------------------------------------------------------------------\r\n\r\n    struct Beneficiario {\r\n        string nombre;\r\n        address address_beneficiario;\r\n    }\r\n\r\n\r\n    struct Asegurado {\r\n        string nombre;\r\n        string sexo;\r\n        uint edad;\r\n        bool cubierto;\r\n    }\r\n\r\n    struct Poliza {\r\n        uint num_poliza;\r\n        Asegurado asegurado;\r\n        Beneficiario beneficiario;\r\n        uint suma_asegurada;\r\n        uint prima;\r\n        uint plazo_seguro;\r\n        uint plazo_primas;\r\n        uint frec_pago_primas;\r\n        string condiciones;\r\n        string procedimientos;\r\n        uint inicio_vigencia;\r\n        uint espera;\r\n        bool pagada;\r\n        uint reserva;\r\n    }\r\n\r\n    struct Siniestro {\r\n        bool aceptado;\r\n        bool pagado;\r\n    }\r\n\r\n    //------------------------------------------------------------------------------\r\n    //------------------------------------------------------------------------------\r\n    //------------------------------------------------------------------------------\r\n    //------------------------------------------------------------------------------\r\n\r\n    // verifica a la seguradora duea del contrato\r\n    modifier onlyOwner() {\r\n        require(msg.sender == _owner,\"\");\r\n        _;\r\n    }\r\n\r\n    // verifica al propietario de la poliza\r\n    modifier onlyOwnerOf(uint _num_poliza) {\r\n        require(msg.sender == poliza_propietario[_num_poliza],\"\");\r\n        _;\r\n    }\r\n\r\n    // checa vigencia para poder estar asegurado\r\n    modifier waitPeriod(uint _num_poliza) {\r\n        require(num_poliza_poliza[_num_poliza].inicio_vigencia + num_poliza_poliza[_num_poliza].plazo_seguro > now, \"Poliza vencida\");\r\n        _;\r\n    }\r\n\r\n    modifier paid(uint _num_poliza) {\r\n        require(num_poliza_poliza[_num_poliza].pagada || num_poliza_poliza[_num_poliza].inicio_vigencia + tiempo_espera >= now,\r\n         \"No se realizo el pago de prima\");\r\n        _;\r\n    }\r\n\r\n    modifier approveOnly(uint _num_poliza) {\r\n        require(msg.sender == benefApprovals[_num_poliza],\"\");\r\n        _;\r\n    }\r\n\r\n\r\n    //------------------------------------------------------------------------------\r\n    //------------------------------------------------------------------------------\r\n    //------------------------------------------------------------------------------\r\n    //------------------------------------------------------------------------------\r\n\r\n    // id asegurado a numero de poliza\r\n    mapping (uint => uint) aseguradoId_num_poliza;\r\n\r\n    //numero de poliza a poliza\r\n    mapping(uint => Poliza)  num_poliza_poliza; //problema con public\r\n\r\n    //numero de poliza a direccion de contratante\r\n    mapping (uint => address) public poliza_propietario;\r\n\r\n    // numero de poliza a address de beneficiarios\r\n    mapping (uint => address) public benefApprovals;\r\n\r\n    // folio de siniestro a numero de poliza\r\n    mapping (uint => uint) public siniestro_num_poliza;\r\n\r\n\r\n    //------------------------------------------------------------------------------\r\n    //------------------------------------------------------------------------------\r\n    //------------------------------------------------------------------------------\r\n    //------------------------------------------------------------------------------\r\n\r\n    Siniestro[] public siniestros;\r\n\r\n    //------------------------------------------------------------------------------\r\n    //------------------------------------------------------------------------------\r\n    //------------------------------------------------------------------------------\r\n    //------------------------------------------------------------------------------\r\n\r\n\r\n    function prueba() public pure returns(string memory) {\r\n        return \"Hola\";\r\n    }\r\n\r\n    function registro_prima(uint _prima) public returns(uint) {\r\n        return prima = _prima;\r\n    }\r\n\r\n    function get_prima() public returns(uint) {\r\n        return prima;\r\n    }\r\n\r\n\r\n    //lee informacion de api para informacion  de asegurado y beneficiario\r\n    function _crearPoliza(Asegurado memory _asegurado, Beneficiario memory _beneficiario,\r\n                          uint _suma_asegurada, uint _prima, uint _reserva) internal {\r\n        num_poliza++;\r\n        Poliza memory temporal = Poliza( num_poliza, _asegurado, _beneficiario, _suma_asegurada, _prima,\r\n         uint(365 days), 1, 1, \"\", \"\", now, now + tiempo_espera, false, _reserva);\r\n        num_poliza_poliza[num_poliza] = temporal;\r\n        emit NewPoliza(num_poliza, _suma_asegurada, _reserva);\r\n    }\r\n\r\n    // onlyOwner\r\n    function creaPoliza(string memory _asegurado,string memory _sexo, uint _edad,\r\n                        string memory _beneficiario, address _address_benef,\r\n                        uint _suma_asegurada, uint prima, uint reserva) public {\r\n        Asegurado memory asegurado = Asegurado(_asegurado, _sexo, _edad, false);\r\n        Beneficiario memory beneficiario = Beneficiario(_beneficiario, _address_benef);\r\n        _crearPoliza(asegurado, beneficiario, _suma_asegurada, prima, reserva);\r\n    }\r\n\r\n    function owner() public view returns(address) {\r\n        return _owner;\r\n    }\r\n\r\n    // transfiere el balance a la aseguradora duea del contrato onlyOwner\r\n    function withdraw() external payable {\r\n        address payable _owner = address(uint160(owner()));\r\n        _owner.transfer(address(this).balance);\r\n    }\r\n\r\n\r\n        // transfiere el balance a la aseguradora duea del contrato onlyOwner\r\n    function withdraw_reserva(uint cantidad) public  payable {\r\n        address payable _owner = address(uint160(owner()));\r\n        _owner.transfer(cantidad);\r\n    }\r\n\r\n\r\n    // realiza el pago de la prima a la poliza correspondiente y regresa excedente si lo hay\r\n    function asegurame(uint _num_poliza) external payable waitPeriod(_num_poliza) onlyOwnerOf(_num_poliza) {\r\n        require(msg.value >= num_poliza_poliza[_num_poliza].prima,\"El pago es insuficiente\");\r\n        num_poliza_poliza[_num_poliza].pagada = true;\r\n        msg.sender.transfer(msg.value - num_poliza_poliza[_num_poliza].prima);\r\n        withdraw_reserva(num_poliza_poliza[_num_poliza].prima - num_poliza_poliza[_num_poliza].reserva);\r\n    }\r\n\r\n    // muestra el dueo de la poliza\r\n    function ownerOf(uint256 _num_poliza) external view returns (address) {\r\n        return poliza_propietario[_num_poliza];\r\n    }\r\n\r\n    function mi_suma_asegurada(uint _num_poliza) external view onlyOwnerOf(_num_poliza) returns (uint) {\r\n        return num_poliza_poliza[_num_poliza].suma_asegurada;\r\n    }\r\n\r\n\r\n    function approve(address _approved, uint256 _num_poliza) external payable onlyOwnerOf(_num_poliza) {\r\n        benefApprovals[_num_poliza] = _approved;\r\n        emit Approval(msg.sender, _approved, _num_poliza);\r\n    }\r\n\r\n    function mi_prima(uint _num_poliza) external view onlyOwnerOf(_num_poliza) returns(uint) {\r\n        uint prima = num_poliza_poliza[_num_poliza].prima;\r\n        return prima;\r\n    }\r\n\r\n    //------------------------------------------------------------------------------\r\n    //------------------------------------------------------------------------------\r\n    //------------------------------------------------------------------------------\r\n    //------------------------------------------------------------------------------\r\n\r\n    function _crearSiniestro(uint _num_poliza) internal {\r\n        bool aceptado = false;\r\n        bool pagado = false;\r\n        Siniestro memory temporal = Siniestro(aceptado,pagado);\r\n        uint folio = siniestros.push(temporal) - 1;\r\n        siniestro_num_poliza[folio] = _num_poliza;\r\n        uint suma_asegurada = num_poliza_poliza[_num_poliza].suma_asegurada;\r\n        uint reserva = num_poliza_poliza[_num_poliza].reserva;\r\n        emit Reclamo(_num_poliza, folio, suma_asegurada, reserva);\r\n    }\r\n\r\n\r\n    function reclamo(uint _num_poliza) external paid(_num_poliza) {\r\n        uint suma_asegurada = num_poliza_poliza[_num_poliza].suma_asegurada;\r\n        address ad = num_poliza_poliza[_num_poliza].beneficiario.address_beneficiario;\r\n        address payable ad_pay = address(uint160(ad));\r\n        ad_pay.transfer(suma_asegurada);\r\n        _crearSiniestro(_num_poliza);\r\n    }\r\n\r\n    function pago_reclamo(uint folio_siniestro,bool aceptacion) public {\r\n        uint _num_poliza = siniestro_num_poliza[folio_siniestro];\r\n        if (aceptacion) {\r\n            uint suma_asegurada = num_poliza_poliza[_num_poliza].suma_asegurada;\r\n            address ad = num_poliza_poliza[_num_poliza].beneficiario.address_beneficiario;\r\n            address payable ad_pay = address(uint160(ad));\r\n            ad_pay.transfer(suma_asegurada);\r\n            emit PagoSiniestro(_num_poliza, suma_asegurada);\r\n        } else {\r\n            emit NoPagoSiniestro(_num_poliza, folio_siniestro);\r\n        }\r\n    }\r\n\r\n    // onlyOwner\r\n    function _setTiempo_espera(uint _tiempo_espera) external {\r\n        tiempo_espera = _tiempo_espera;\r\n    }\r\n}\r\n",
  "sourcePath": "C:/Users/DJCooper/Desktop/Hackathon_BBVA_2019/Block_Vision/contracts/seguro.sol",
  "compiler": {
    "name": "solc",
    "version": "0.5.8+commit.23d335f2.Emscripten.clang"
  },
  "schemaVersion": "3.0.15",
  "updatedAt": "2019-09-08T17:41:54.746Z",
  "devdoc": {
    "methods": {}
  },
  "userdoc": {
    "methods": {}
  }
}