{
  "contractName": "Seguro",
  "abi": [
    {
      "constant": true,
      "inputs": [
        {
          "name": "",
          "type": "uint256"
        }
      ],
      "name": "siniestro_num_poliza",
      "outputs": [
        {
          "name": "",
          "type": "uint256"
        }
      ],
      "payable": false,
      "stateMutability": "view",
      "type": "function"
    },
    {
      "constant": true,
      "inputs": [
        {
          "name": "",
          "type": "uint256"
        }
      ],
      "name": "poliza_propietario",
      "outputs": [
        {
          "name": "",
          "type": "address"
        }
      ],
      "payable": false,
      "stateMutability": "view",
      "type": "function"
    },
    {
      "constant": true,
      "inputs": [
        {
          "name": "",
          "type": "uint256"
        }
      ],
      "name": "benefApprovals",
      "outputs": [
        {
          "name": "",
          "type": "address"
        }
      ],
      "payable": false,
      "stateMutability": "view",
      "type": "function"
    },
    {
      "constant": true,
      "inputs": [
        {
          "name": "",
          "type": "uint256"
        }
      ],
      "name": "siniestros",
      "outputs": [
        {
          "name": "aceptado",
          "type": "bool"
        },
        {
          "name": "pagado",
          "type": "bool"
        }
      ],
      "payable": false,
      "stateMutability": "view",
      "type": "function"
    },
    {
      "inputs": [],
      "payable": false,
      "stateMutability": "nonpayable",
      "type": "constructor"
    },
    {
      "anonymous": false,
      "inputs": [
        {
          "indexed": false,
          "name": "num_poliza",
          "type": "uint256"
        },
        {
          "indexed": false,
          "name": "suma_asegurada",
          "type": "uint256"
        }
      ],
      "name": "NewPoliza",
      "type": "event"
    },
    {
      "anonymous": false,
      "inputs": [
        {
          "indexed": true,
          "name": "_owner",
          "type": "address"
        },
        {
          "indexed": true,
          "name": "_approved",
          "type": "address"
        },
        {
          "indexed": true,
          "name": "_tokenId",
          "type": "uint256"
        }
      ],
      "name": "Approval",
      "type": "event"
    },
    {
      "constant": true,
      "inputs": [],
      "name": "prueba",
      "outputs": [
        {
          "name": "",
          "type": "string"
        }
      ],
      "payable": false,
      "stateMutability": "pure",
      "type": "function"
    },
    {
      "constant": false,
      "inputs": [
        {
          "name": "_asegurado",
          "type": "string"
        },
        {
          "name": "_sexo",
          "type": "string"
        },
        {
          "name": "_edad",
          "type": "uint256"
        },
        {
          "name": "_beneficiario",
          "type": "string"
        },
        {
          "name": "_address_benef",
          "type": "address"
        },
        {
          "name": "_suma_asegurada",
          "type": "uint256"
        },
        {
          "name": "prima",
          "type": "uint256"
        }
      ],
      "name": "creaPoliza",
      "outputs": [],
      "payable": false,
      "stateMutability": "nonpayable",
      "type": "function"
    },
    {
      "constant": true,
      "inputs": [],
      "name": "owner",
      "outputs": [
        {
          "name": "",
          "type": "address"
        }
      ],
      "payable": false,
      "stateMutability": "view",
      "type": "function"
    },
    {
      "constant": false,
      "inputs": [],
      "name": "withdraw",
      "outputs": [],
      "payable": true,
      "stateMutability": "payable",
      "type": "function"
    },
    {
      "constant": false,
      "inputs": [
        {
          "name": "_num_poliza",
          "type": "uint256"
        }
      ],
      "name": "asegurame",
      "outputs": [],
      "payable": true,
      "stateMutability": "payable",
      "type": "function"
    },
    {
      "constant": true,
      "inputs": [
        {
          "name": "_num_poliza",
          "type": "uint256"
        }
      ],
      "name": "ownerOf",
      "outputs": [
        {
          "name": "",
          "type": "address"
        }
      ],
      "payable": false,
      "stateMutability": "view",
      "type": "function"
    },
    {
      "constant": true,
      "inputs": [
        {
          "name": "_num_poliza",
          "type": "uint256"
        }
      ],
      "name": "mi_suma_asegurada",
      "outputs": [
        {
          "name": "",
          "type": "uint256"
        }
      ],
      "payable": false,
      "stateMutability": "view",
      "type": "function"
    },
    {
      "constant": false,
      "inputs": [
        {
          "name": "_approved",
          "type": "address"
        },
        {
          "name": "_num_poliza",
          "type": "uint256"
        }
      ],
      "name": "approve",
      "outputs": [],
      "payable": true,
      "stateMutability": "payable",
      "type": "function"
    },
    {
      "constant": true,
      "inputs": [
        {
          "name": "_num_poliza",
          "type": "uint256"
        }
      ],
      "name": "getMyPremium",
      "outputs": [
        {
          "name": "",
          "type": "uint256"
        }
      ],
      "payable": false,
      "stateMutability": "view",
      "type": "function"
    },
    {
      "constant": false,
      "inputs": [
        {
          "name": "_num_poliza",
          "type": "uint256"
        },
        {
          "name": "aceptacion",
          "type": "bool"
        }
      ],
      "name": "reclamo",
      "outputs": [],
      "payable": false,
      "stateMutability": "nonpayable",
      "type": "function"
    },
    {
      "constant": false,
      "inputs": [
        {
          "name": "_tiempo_espera",
          "type": "uint256"
        }
      ],
      "name": "_setTiempo_espera",
      "outputs": [],
      "payable": false,
      "stateMutability": "nonpayable",
      "type": "function"
    }
  ],
  "bytecode": "0x60806040526213c68060015534801561001757600080fd5b50336000806101000a81548173ffffffffffffffffffffffffffffffffffffffff021916908373ffffffffffffffffffffffffffffffffffffffff16021790555060006002819055506118288061006f6000396000f3fe6080604052600436106100e85760003560e01c80637cb5946d1161008a578063bc1ab31e11610059578063bc1ab31e1461065d578063d5dbd663146106d8578063e1913f2f14610727578063facd19ec14610785576100e8565b80637cb5946d146104cd5780638da5cb5b1461055d578063a3820ac2146105b4578063ab500a38146105e2576100e8565b8063161a3eb6116100c6578063161a3eb6146103aa5780633ccfd60b146103f9578063454f8e97146104035780636352211e14610452576100e8565b8063018e6180146100ed578063095ea7b314610128578063099f3f8614610176575b600080fd5b3480156100f957600080fd5b506101266004803603602081101561011057600080fd5b81019080803590602001909291905050506107cc565b005b6101746004803603604081101561013e57600080fd5b81019080803573ffffffffffffffffffffffffffffffffffffffff16906020019092919080359060200190929190505050610873565b005b34801561018257600080fd5b506103a8600480360360e081101561019957600080fd5b81019080803590602001906401000000008111156101b657600080fd5b8201836020820111156101c857600080fd5b803590602001918460018302840111640100000000831117156101ea57600080fd5b91908080601f016020809104026020016040519081016040528093929190818152602001838380828437600081840152601f19601f8201169050808301925050505050505091929192908035906020019064010000000081111561024d57600080fd5b82018360208201111561025f57600080fd5b8035906020019184600183028401116401000000008311171561028157600080fd5b91908080601f016020809104026020016040519081016040528093929190818152602001838380828437600081840152601f19601f82011690508083019250505050505050919291929080359060200190929190803590602001906401000000008111156102ee57600080fd5b82018360208201111561030057600080fd5b8035906020019184600183028401116401000000008311171561032257600080fd5b91908080601f016020809104026020016040519081016040528093929190818152602001838380828437600081840152601f19601f820116905080830192505050505050509192919290803573ffffffffffffffffffffffffffffffffffffffff16906020019092919080359060200190929190803590602001909291905050506109d5565b005b3480156103b657600080fd5b506103e3600480360360208110156103cd57600080fd5b8101908080359060200190929190505050610a4f565b6040518082815260200191505060405180910390f35b610401610a67565b005b34801561040f57600080fd5b5061043c6004803603602081101561042657600080fd5b8101908080359060200190929190505050610b71565b6040518082815260200191505060405180910390f35b34801561045e57600080fd5b5061048b6004803603602081101561047557600080fd5b8101908080359060200190929190505050610c48565b604051808273ffffffffffffffffffffffffffffffffffffffff1673ffffffffffffffffffffffffffffffffffffffff16815260200191505060405180910390f35b3480156104d957600080fd5b506104e2610c85565b6040518080602001828103825283818151815260200191508051906020019080838360005b83811015610522578082015181840152602081019050610507565b50505050905090810190601f16801561054f5780820380516001836020036101000a031916815260200191505b509250505060405180910390f35b34801561056957600080fd5b50610572610cc2565b604051808273ffffffffffffffffffffffffffffffffffffffff1673ffffffffffffffffffffffffffffffffffffffff16815260200191505060405180910390f35b6105e0600480360360208110156105ca57600080fd5b8101908080359060200190929190505050610ceb565b005b3480156105ee57600080fd5b5061061b6004803603602081101561060557600080fd5b8101908080359060200190929190505050610f5e565b604051808273ffffffffffffffffffffffffffffffffffffffff1673ffffffffffffffffffffffffffffffffffffffff16815260200191505060405180910390f35b34801561066957600080fd5b506106966004803603602081101561068057600080fd5b8101908080359060200190929190505050610f91565b604051808273ffffffffffffffffffffffffffffffffffffffff1673ffffffffffffffffffffffffffffffffffffffff16815260200191505060405180910390f35b3480156106e457600080fd5b50610711600480360360208110156106fb57600080fd5b8101908080359060200190929190505050610fc4565b6040518082815260200191505060405180910390f35b34801561073357600080fd5b506107606004803603602081101561074a57600080fd5b8101908080359060200190929190505050611095565b6040518083151515158152602001821515151581526020019250505060405180910390f35b34801561079157600080fd5b506107ca600480360360408110156107a857600080fd5b81019080803590602001909291908035151590602001909291905050506110dc565b005b6000809054906101000a900473ffffffffffffffffffffffffffffffffffffffff1673ffffffffffffffffffffffffffffffffffffffff163373ffffffffffffffffffffffffffffffffffffffff1614610869576040517f08c379a0000000000000000000000000000000000000000000000000000000008152600401808060200182810382526000815260200160200191505060405180910390fd5b8060018190555050565b806005600082815260200190815260200160002060009054906101000a900473ffffffffffffffffffffffffffffffffffffffff1673ffffffffffffffffffffffffffffffffffffffff163373ffffffffffffffffffffffffffffffffffffffff1614610923576040517f08c379a0000000000000000000000000000000000000000000000000000000008152600401808060200182810382526000815260200160200191505060405180910390fd5b826006600084815260200190815260200160002060006101000a81548173ffffffffffffffffffffffffffffffffffffffff021916908373ffffffffffffffffffffffffffffffffffffffff160217905550818373ffffffffffffffffffffffffffffffffffffffff163373ffffffffffffffffffffffffffffffffffffffff167f8c5be1e5ebec7d5bd14f71427d1e84f3dd0314c0f7b2291e5b200ac8c7c3b92560405160405180910390a4505050565b6109dd61160f565b6040518060800160405280898152602001888152602001878152602001600015158152509050610a0b611639565b60405180604001604052808781526020018673ffffffffffffffffffffffffffffffffffffffff168152509050610a44828286866112c1565b505050505050505050565b60076020528060005260406000206000915090505481565b6000809054906101000a900473ffffffffffffffffffffffffffffffffffffffff1673ffffffffffffffffffffffffffffffffffffffff163373ffffffffffffffffffffffffffffffffffffffff1614610b04576040517f08c379a0000000000000000000000000000000000000000000000000000000008152600401808060200182810382526000815260200160200191505060405180910390fd5b6000610b0e610cc2565b90508073ffffffffffffffffffffffffffffffffffffffff166108fc3073ffffffffffffffffffffffffffffffffffffffff16319081150290604051600060405180830381858888f19350505050158015610b6d573d6000803e3d6000fd5b5050565b6000816005600082815260200190815260200160002060009054906101000a900473ffffffffffffffffffffffffffffffffffffffff1673ffffffffffffffffffffffffffffffffffffffff163373ffffffffffffffffffffffffffffffffffffffff1614610c23576040517f08c379a0000000000000000000000000000000000000000000000000000000008152600401808060200182810382526000815260200160200191505060405180910390fd5b6000600460008581526020019081526020016000206008015490508092505050919050565b60006005600083815260200190815260200160002060009054906101000a900473ffffffffffffffffffffffffffffffffffffffff169050919050565b60606040518060400160405280600481526020017f486f6c6100000000000000000000000000000000000000000000000000000000815250905090565b60008060009054906101000a900473ffffffffffffffffffffffffffffffffffffffff16905090565b8042600460008381526020019081526020016000206009015460046000848152602001908152602001600020600e01540111610d8f576040517f08c379a000000000000000000000000000000000000000000000000000000000815260040180806020018281038252600e8152602001807f506f6c697a612076656e6369646100000000000000000000000000000000000081525060200191505060405180910390fd5b816005600082815260200190815260200160002060009054906101000a900473ffffffffffffffffffffffffffffffffffffffff1673ffffffffffffffffffffffffffffffffffffffff163373ffffffffffffffffffffffffffffffffffffffff1614610e3f576040517f08c379a0000000000000000000000000000000000000000000000000000000008152600401808060200182810382526000815260200160200191505060405180910390fd5b6004600084815260200190815260200160002060080154341015610ecb576040517f08c379a00000000000000000000000000000000000000000000000000000000081526004018080602001828103825260178152602001807f456c207061676f20657320696e737566696369656e746500000000000000000081525060200191505060405180910390fd5b60016004600085815260200190815260200160002060100160006101000a81548160ff0219169083151502179055503373ffffffffffffffffffffffffffffffffffffffff166108fc600460008681526020019081526020016000206008015434039081150290604051600060405180830381858888f19350505050158015610f58573d6000803e3d6000fd5b50505050565b60056020528060005260406000206000915054906101000a900473ffffffffffffffffffffffffffffffffffffffff1681565b60066020528060005260406000206000915054906101000a900473ffffffffffffffffffffffffffffffffffffffff1681565b6000816005600082815260200190815260200160002060009054906101000a900473ffffffffffffffffffffffffffffffffffffffff1673ffffffffffffffffffffffffffffffffffffffff163373ffffffffffffffffffffffffffffffffffffffff1614611076576040517f08c379a0000000000000000000000000000000000000000000000000000000008152600401808060200182810382526000815260200160200191505060405180910390fd5b6004600084815260200190815260200160002060070154915050919050565b600981815481106110a257fe5b906000526020600020016000915090508060000160009054906101000a900460ff16908060000160019054906101000a900460ff16905082565b816004600082815260200190815260200160002060100160009054906101000a900460ff168061112657504260015460046000848152602001908152602001600020600e01540110155b611198576040517f08c379a000000000000000000000000000000000000000000000000000000000815260040180806020018281038252601e8152602001807f4e6f207365207265616c697a6f20656c207061676f206465207072696d61000081525060200191505060405180910390fd5b8161120b576040517f08c379a00000000000000000000000000000000000000000000000000000000081526004018080602001828103825260178152602001807f4e6f2070726f6365646520656c2073696e69657374726f00000000000000000081525060200191505060405180910390fd5b60006004600085815260200190815260200160002060070154905060006004600086815260200190815260200160002060050160010160009054906101000a900473ffffffffffffffffffffffffffffffffffffffff16905060008190508073ffffffffffffffffffffffffffffffffffffffff166108fc849081150290604051600060405180830381858888f193505050501580156112af573d6000803e3d6000fd5b506112b986611550565b505050505050565b6002600081548092919060010191905055506112db611669565b604051806101a0016040528060025481526020018681526020018581526020018481526020018381526020016301e133808152602001600181526020016001815260200160405180602001604052806000815250815260200160405180602001604052806000815250815260200142815260200160015442018152602001600015158152509050806004600060025481526020019081526020016000206000820151816000015560208201518160010160008201518160000190805190602001906113a79291906116df565b5060208201518160010190805190602001906113c49291906116df565b506040820151816002015560608201518160030160006101000a81548160ff021916908315150217905550505060408201518160050160008201518160000190805190602001906114169291906116df565b5060208201518160010160006101000a81548173ffffffffffffffffffffffffffffffffffffffff021916908373ffffffffffffffffffffffffffffffffffffffff1602179055505050606082015181600701556080820151816008015560a0820151816009015560c082015181600a015560e082015181600b015561010082015181600c0190805190602001906114af9291906116df565b5061012082015181600d0190805190602001906114cd9291906116df565b5061014082015181600e015561016082015181600f01556101808201518160100160006101000a81548160ff0219169083151502179055509050507f4a369b9661112c6177d85f2da71d6234362264127b453853b1c75b0153533b8760025484604051808381526020018281526020019250505060405180910390a15050505050565b6000809050600080905061156261175f565b6040518060400160405280841515815260200183151581525090506000600160098390806001815401808255809150509060018203906000526020600020016000909192909190915060008201518160000160006101000a81548160ff02191690831515021790555060208201518160000160016101000a81548160ff02191690831515021790555050500390508460076000838152602001908152602001600020819055505050505050565b60405180608001604052806060815260200160608152602001600081526020016000151581525090565b604051806040016040528060608152602001600073ffffffffffffffffffffffffffffffffffffffff1681525090565b6040518061022001604052806000815260200161168461177d565b81526020016116916117a7565b81526020016000815260200160008152602001600081526020016000815260200160008152602001606081526020016060815260200160008152602001600081526020016000151581525090565b828054600181600116156101000203166002900490600052602060002090601f016020900481019282601f1061172057805160ff191683800117855561174e565b8280016001018555821561174e579182015b8281111561174d578251825591602001919060010190611732565b5b50905061175b91906117d7565b5090565b60405180604001604052806000151581526020016000151581525090565b60405180608001604052806060815260200160608152602001600081526020016000151581525090565b604051806040016040528060608152602001600073ffffffffffffffffffffffffffffffffffffffff1681525090565b6117f991905b808211156117f55760008160009055506001016117dd565b5090565b9056fea165627a7a723058209cbf4cb54c9457ab9d25346fce3e2c7cda4d0e43b7999d540f343fdfe596d1ef0029",
  "source": "pragma solidity ^0.5.8;\n\nimport \"./ERC721.sol\";\n\ncontract Seguro is ERC721 {\n\n    event NewPoliza(uint num_poliza, uint suma_asegurada);\n\n    //------------------------------------------------------------------------------\n    //------------------------------------------------------------------------------\n    //------------------------------------------------------------------------------\n    //------------------------------------------------------------------------------\n\n    address payable private _owner;\n    uint tiempo_espera = 15 days;\n    uint num_poliza;\n\n    constructor() public {\n        _owner = msg.sender;\n        num_poliza = 0;\n    }\n\n    //------------------------------------------------------------------------------\n    //------------------------------------------------------------------------------\n    //------------------------------------------------------------------------------\n    //------------------------------------------------------------------------------\n\n    struct Beneficiario {\n        string nombre;\n        address address_beneficiario;\n    }\n\n\n    struct Asegurado {\n        string nombre;\n        string sexo;\n        uint edad;\n        bool cubierto;\n    }\n\n    struct Poliza {\n        uint num_poliza;\n        Asegurado asegurado;\n        Beneficiario beneficiario;\n        uint suma_asegurada;\n        uint prima;\n        uint plazo_seguro;\n        uint plazo_primas;\n        uint frec_pago_primas;\n        string condiciones;\n        string procedimientos;\n        uint inicio_vigencia;\n        uint espera;\n        bool pagada;\n    }\n\n    struct Siniestro {\n        bool aceptado;\n        bool pagado;\n    }\n\n    //------------------------------------------------------------------------------\n    //------------------------------------------------------------------------------\n    //------------------------------------------------------------------------------\n    //------------------------------------------------------------------------------\n\n    // verifica al dueño del contrato\n    modifier onlyOwner() {\n        require(msg.sender == _owner,\"\");\n        _;\n    }\n\n    // verifica al propietario de la poliza\n    modifier onlyOwnerOf(uint _num_poliza) {\n        require(msg.sender == poliza_propietario[_num_poliza],\"\");\n        _;\n    }\n\n    // checa vigencia para poder estar asegurado\n    modifier waitPeriod(uint _num_poliza) {\n        require(num_poliza_poliza[_num_poliza].inicio_vigencia + num_poliza_poliza[_num_poliza].plazo_seguro > now, \"Poliza vencida\");\n        _;\n    }\n\n    modifier paid(uint _num_poliza) {\n        require(num_poliza_poliza[_num_poliza].pagada || num_poliza_poliza[_num_poliza].inicio_vigencia + tiempo_espera >= now,\n         \"No se realizo el pago de prima\");\n        _;\n    }\n\n    modifier approveOnly(uint _num_poliza) {\n        require(msg.sender == benefApprovals[_num_poliza],\"\");\n        _;\n    }\n\n\n    //------------------------------------------------------------------------------\n    //------------------------------------------------------------------------------\n    //------------------------------------------------------------------------------\n    //------------------------------------------------------------------------------\n\n    // id asegurado a numero de poliza\n    mapping (uint => uint) aseguradoId_num_poliza;\n\n    //numero de poliza a poliza\n    mapping(uint => Poliza)  num_poliza_poliza; //problema con public\n\n    //numero de poliza a direccion de contratante\n    mapping (uint => address) public poliza_propietario;\n\n    // numero de poliza a address de beneficiarios\n    mapping (uint => address) public benefApprovals;\n\n    // folio de siniestro a numero de poliza\n    mapping (uint => uint) public siniestro_num_poliza;\n\n\n    //------------------------------------------------------------------------------\n    //------------------------------------------------------------------------------\n    //------------------------------------------------------------------------------\n    //------------------------------------------------------------------------------\n\n    Asegurado[] private asegurados;\n    Siniestro[] public siniestros;\n\n    //------------------------------------------------------------------------------\n    //------------------------------------------------------------------------------\n    //------------------------------------------------------------------------------\n    //------------------------------------------------------------------------------\n\n\n    function prueba() public pure returns(string memory) {\n        return \"Hola\";\n    }\n\n    //lee informacion de api para informacion  de asegurado y beneficiario\n    function _crearPoliza(Asegurado memory _asegurado, Beneficiario memory _beneficiario,\n                          uint _suma_asegurada, uint _prima) internal {\n        num_poliza++;\n        Poliza memory temporal = Poliza( num_poliza, _asegurado, _beneficiario, _suma_asegurada, _prima,\n         uint(365 days), 1, 1, \"\", \"\", now, now + tiempo_espera, false);\n        num_poliza_poliza[num_poliza] = temporal;\n        emit NewPoliza(num_poliza, _suma_asegurada);\n    }\n\n\n    function creaPoliza(string memory _asegurado,string memory _sexo, uint _edad,\n                        string memory _beneficiario, address _address_benef,\n                        uint _suma_asegurada, uint prima) public {\n        Asegurado memory asegurado = Asegurado(_asegurado, _sexo, _edad, false);\n        Beneficiario memory beneficiario = Beneficiario(_beneficiario, _address_benef);\n        _crearPoliza(asegurado, beneficiario, _suma_asegurada, prima);\n    }\n\n    function owner() public view returns(address) {\n        return _owner;\n    }\n\n    // transfiere el balance a la aseguradora dueña del contrato\n    function withdraw() external onlyOwner payable {\n        address payable _owner = address(uint160(owner()));\n        _owner.transfer(address(this).balance);\n    }\n\n\n    // realiza el pago de la prima a la poliza correspondiente y regresa excedente si lo hay\n    function asegurame(uint _num_poliza) external payable waitPeriod(_num_poliza) onlyOwnerOf(_num_poliza) {\n        require(msg.value >= num_poliza_poliza[_num_poliza].prima,\"El pago es insuficiente\");\n        num_poliza_poliza[_num_poliza].pagada = true;\n        msg.sender.transfer(msg.value - num_poliza_poliza[_num_poliza].prima);\n    }\n\n    // muestra el dueño de la poliza\n    function ownerOf(uint256 _num_poliza) external view returns (address) {\n        return poliza_propietario[_num_poliza];\n    }\n\n    function mi_suma_asegurada(uint _num_poliza) external view onlyOwnerOf(_num_poliza) returns (uint) {\n        return num_poliza_poliza[_num_poliza].suma_asegurada;\n    }\n\n\n    function approve(address _approved, uint256 _num_poliza) external payable onlyOwnerOf(_num_poliza) {\n        benefApprovals[_num_poliza] = _approved;\n        emit Approval(msg.sender, _approved, _num_poliza);\n    }\n\n    function getMyPremium(uint _num_poliza) external view onlyOwnerOf(_num_poliza) returns(uint) {\n        uint prima = num_poliza_poliza[_num_poliza].prima;\n        return prima;\n    }\n\n    //------------------------------------------------------------------------------\n    //------------------------------------------------------------------------------\n    //------------------------------------------------------------------------------\n    //------------------------------------------------------------------------------\n\n    function _crearSiniestro(uint _num_poliza) internal {\n        bool aceptado = false;\n        bool pagado = false;\n        Siniestro memory temporal = Siniestro(aceptado,pagado);\n        uint folio = siniestros.push(temporal) - 1;\n        siniestro_num_poliza[folio] = _num_poliza;\n    }\n\n\n    function reclamo(uint _num_poliza, bool aceptacion) external paid(_num_poliza) {\n        require(aceptacion, \"No procede el siniestro\");\n        uint suma_asegurada = num_poliza_poliza[_num_poliza].suma_asegurada;\n        address ad = num_poliza_poliza[_num_poliza].beneficiario.address_beneficiario;\n        address payable ad_pay = address(uint160(ad));\n        ad_pay.transfer(suma_asegurada);\n        _crearSiniestro(_num_poliza);\n    }\n\n    function _setTiempo_espera(uint _tiempo_espera) external onlyOwner {\n        tiempo_espera = _tiempo_espera;\n    }\n}\n",
  "sourcePath": "/home/jorgevaldez/MEGA/Hackathons/BBVA2019/Hackathon_BBVA_2019/Block_Vision/contracts/seguro.sol",
  "compiler": {
    "name": "solc",
    "version": "0.5.8+commit.23d335f2.Emscripten.clang"
  },
  "schemaVersion": "3.0.13",
  "updatedAt": "2019-09-08T08:20:36.335Z",
  "devdoc": {
    "methods": {}
  },
  "userdoc": {
    "methods": {}
  }
}